:020000040800F2
:10000000304C00202102000847140008D1120008DB
:100010004514000827030008991700080000000095
:10002000000000000000000000000000890100083E
:100030002903000800000000CD0100084914000851
:100040003B0200083B0200083B0200083B0200089C
:100050003B0200083B0200083B0200083B0200088C
:100060003B0200083B0200083B0200083B0200087C
:100070003B0200083B0200083B0200083B0200086C
:100080003B0200083B0200083B0200083B0200085C
:100090003B0200083B0200083B0200083B0200084C
:1000A0003B0200083B0200083B0200083B0200083C
:1000B0003B020008BD1400083B0200083B02000898
:1000C0003B0200083B0200083B0200083B0200081C
:1000D0003B0200088D1700083B0200083B020008A5
:1000E0003B0200083B0200083B02000800F002F857
:1000F00000F03AF80AA090E8000C82448344AAF188
:100100000107DA4501D100F02FF8AFF2090EBAE885
:100110000F0013F0010F18BFFB1A43F0010318473B
:100120006021000080210000103A24BF78C878C107
:10013000FAD8520724BF30C830C144BF04680C60ED
:10014000704700000023002400250026103A28BF35
:1001500078C1FBD8520728BF30C148BF0B60704739
:100160001FB51FBD10B510BD00F0A4F81146FFF774
:10017000F7FF01F03DFB00F0C2F803B4FFF7F2FF18
:1001800003BC00F0C9F80000224B19680868B0E809
:10019000F00F80F30988BFF36F8F4FF0000080F3FA
:1001A00011884EF00D0E70470000000006480068F0
:1001B000006880F3088862B661B6BFF34F8FBFF363
:1001C0006F8F00DF00BF00BF08ED00E0EFF3098094
:1001D000BFF36F8F0F4B1A6820E9F00F106008B55E
:1001E0004FF0BF0080F31188BFF34F8FBFF36F8FC5
:1001F00001F080FE4FF0000080F31188BDE8084058
:1002000019680868B0E8F00F80F30988BFF36F8FB2
:10021000704700BF18000020EFF305807047000012
:100220000948804709480047FEE7FEE7FEE7FEE78A
:10023000FEE7FEE7FEE7FEE7FEE7FEE704480549C6
:10024000054A064B70470000BB140008ED0000088B
:1002500030460020304C002030480020304800203C
:100260004FF0000200B5134694469646203922BF4F
:10027000A0E80C50A0E80C50B1F12001BFF4F7AF9A
:10028000090728BFA0E80C5048BF0CC05DF804EB7C
:10029000890028BF40F8042B08BF704748BF20F8EA
:1002A000022B11F0804F18BF00F8012B70477047E8
:1002B00070477047754600F02BF8AE46050069465A
:1002C000534620F00700854618B020B5FFF7B6FF6B
:1002D000BDE820404FF000064FF000074FF0000847
:1002E0004FF0000B21F00701AC46ACE8C009ACE8C8
:1002F000C009ACE8C009ACE8C0098D46704710B52C
:100300000446AFF300802046BDE81040FFF735BF3C
:1003100000487047D045002001491820ABBEFEE7D9
:10032000260002007047FEE7704772B6FEE710B580
:1003300090F821100022022905D00421816380F861
:100340002020012010BD01680B6823F00E030B6014
:1003500001680B6823F001030B6090F84030C46B18
:10036000012101FA03F3636080F8211080F8202056
:10037000104610BD10B590F821100024022903D0BA
:100380000421816301243DE001680A6822F00E0225
:100390000A6001680A6822F001020A601A4A0168CC
:1003A000914201D1012121E0174A1432914201D139
:1003B00010211BE0144A2832914201D1891515E021
:1003C000114A3C32914201D189140FE00E4A503259
:1003D000914202D14FF4803108E00B4A64329142DD
:1003E00002D14FF4801101E04FF08071064A083AC3
:1003F0005160012180F82110002180F82010416B0C
:1004000001B18847204610BD0800024070B504467F
:1004100000F008F90546601C02D004480078044446
:1004200000F000F9401BA042FAD370BD0800002084
:100430002DE9F84FDFF8B8910024A9F1040B234609
:100440000F2709F1040AABF1040EC9E00125A5400C
:100450002A40AA427DD1674ED1F804C0ACEB060811
:10046000B44532D014DCBCF1030F3AD009DCBCF146
:10047000000F2AD0BCF1010F1CD0BCF1020F31D10A
:100480001DE0BCF1110F17D0BCF1120F2AD119E0F9
:10049000B8F5881F19D006DCB8F5803F15D0B8F53F
:1004A000801F1FD111E0B8F5001F0ED0B8F5041F52
:1004B00018D10AE0CB6815E0CB681B1D12E0CB68B1
:1004C00008330FE0CB680C330CE08B682BB1012BA9
:1004D0004FF0080303D0456104E0042302E0056106
:1004E00000E00023FF2A01D8064601E000F10406DF
:1004F0004FEA840501D9A5F12005D6F8008007FA56
:1005000005FC28EA0C0803FA05F548EA0508C6F8D0
:1005100000804D68ED0062D5374DAE6946F00106AA
:10052000AE61AD6924F0030605F001050095334D79
:1005300006EB050CDCF80850A607360F07FA06F89C
:1005400025EA0805DFF8B880404503D14FF00008E0
:1005500017E044E0DFF8AC80404502D14FF00108DD
:100560000FE0DFF8A480404502D14FF0020808E018
:10057000DFF89880404502D14FF0030801E04FF0CA
:10058000040808FA06F848EA0508CCF808804D681F
:10059000D9F80060ED024D4601D5164300E09643C0
:1005A0002E604D68DAF80060AD02554601D516435D
:1005B00000E096432E604D68DBF80060AD035D46B9
:1005C00001D5164300E096432E604D68DEF80060CA
:1005D000ED03754601D5164300E096432E60641C7A
:1005E0000D682A46E5407FF431AFBDE8F88F000082
:1005F00008040140000011100010024000000140FA
:1006000000080140000C01400010014000140140AE
:100610008068084000D0012070470AB1016170472E
:100620000904FBE7014880687047000008000020CB
:1006300002488168027811448160704708000020F8
:10064000074810B5016841F010010160032000F077
:10065000A1F8012000F006F800F050F8002010BDCD
:100660000020024030B505461F4887B0C16941F0FF
:100670000201C161C06906A900F00200009001A852
:1006800000F030F90498B0B100F04CF9400017497F
:10069000174AB0FBF1F11748491E0260416040F271
:1006A000E7320021C0E903218160816100F012FB83
:1006B000040003D015E000F035F9E8E70D4800F03C
:1006C00037FB04000DD11D2000F036F8102D07D2A5
:1006D000002229461D2000F03DF80748056000E093
:1006E000012407B0204630BD0010024040420F00F8
:1006F00000040040C00000200C0000200C4808B599
:10070000816941F001018161816901F0010100917C
:10071000C16941F08051C161C06900F08050009012
:100720000448416821F0E06141F00071416008BD7A
:100730000010024000000140002809DB00F01F0209
:10074000012191404009800000F1E020C0F8001133
:1007500070470000F0B40E4B1B680C46C3F3022335
:10076000C3F10705042D00D90425191D072901D25D
:10077000002300E0DB1E012606FA05F1491E214098
:1007800099409E40761E16403143F0BC01F005B8FA
:100790000CED00E0064900F0070208684FF6FF0381
:1007A000184040EA0220034A1043086070470000E6
:1007B0000CED00E00000FA052DE9F0470F460500BA
:1007C00061D0434E306800F00700B84209D230686B
:1007D00020F0070038433060306800F00700B8426E
:1007E00051D128683B4C810712D5400703D560687A
:1007F00040F4E06060602878000703D5606840F44A
:10080000605060606068A96820F0F0000843606094
:100810002878C00728D06868012810D021680228ED
:1008200010D0890700292EDA616821F00301014305
:100830006160FFF7F7FE804641F288390DE02168DC
:100840008903EFE78901EDE7FFF7ECFEA0EB080174
:10085000494502D90320BDE8F0876068696800F067
:100860000C00B0EB810FEFD1306800F00700B84208
:100870000BD9306820F0070038433060306800F052
:100880000700B84201D00120E5E72878400705D5E8
:100890006068E96820F4E060084360602878000739
:1008A00006D56068296920F4605040EAC1006060A4
:1008B00000F058F86168084AC1F30311515CC84060
:1008C0000649086006480068FFF7CCFE0020C2E732
:1008D00000200240001002406622000814000020A0
:1008E0000C0000200F2202600C4A536803F003033F
:1008F0004360536803F0F0038360536803F4E063DC
:10090000C36052684FF4E06303EAD2020261044814
:10091000006800F007000860704700000010024007
:10092000002002400448054900684968044AC1F3B0
:100930000221515CC84070471400002000100240A2
:10094000762200080448054900684968044AC1F352
:10095000C221515CC84070471400002000100240C2
:10096000762200080E4A51680E4801F00C03042B51
:1009700011D0082B0FD10C48C1F38343C903C05CCD
:100980000AD55168084AC1F34041921E515C054A9C
:100990005043B0FBF1F070470449484370470000F2
:1009A0000010024000127A005622000800093D00A3
:1009B0002DE9F84F040070D02078C04DC00749D011
:1009C0006868C0F38100012807D06868C0F381001F
:1009D000022809D16868C00306D52868800339D584
:1009E00060680028E7D035E06068B0F5803F0BD044
:1009F00010B1B0F5A02F11D0286820F48030286005
:100A0000286820F4802002E0286840F480302860C4
:100A1000606890B1FFF706FE06460AE0286840F4D9
:100A200080202860F0E700BFFFF7FCFD801B6428F2
:100A300073D828688003F7D50CE0FFF7F3FD06466E
:100A400005E000BFFFF7EEFD801B6428F0D82868A2
:100A50008003F7D420789A4E80074FF001094FF0B9
:100A6000000839D5686810F00C0F07D06868C0F32B
:100A70008100022809D16868C00306D4286880076D
:100A800014D52069012808D110E02069B0B1C6F85A
:100A90000090FFF7C7FD074605E00AE1FFF7C2FD3A
:100AA000C01B0228C4D828688007F7D52868616968
:100AB00020F0F80040EAC10028600DE0C6F8008090
:100AC000FFF7B0FD074604E0FFF7ACFDC01B0228AE
:100AD00023D828688007F7D4207800072CD57948D8
:100AE000A169D9B1C0F80090FFF79CFD074604E06A
:100AF000FFF798FDC01B02280FD8686A8007F7D55A
:100B000071484FF4FA510068B0FBF1F0009000BF5B
:100B10000098411E0091FAD20EE080E0C0F80080FB
:100B2000FFF780FD074604E0FFF77CFDC01B0228AD
:100B300075D8686A8007F7D42078400760D5E869DF
:100B40000027C00008D4E86940F08050E861E869F7
:100B5000012700F0805000905C480168C90513D45B
:100B60000168834641F480710160FFF75BFD8246B6
:100B700006E000BFFFF756FDA0EB0A0064284ED840
:100B8000DBF80000C005F5D5E06801280AD008B1FF
:100B9000052813D0286A20F001002862286A20F076
:100BA000040002E0286A40F001002862E06841F297
:100BB000883B98B1FFF736FD82460BE0286A40F08B
:100BC00004002862EEE700BFFFF72CFDA0EB0A014E
:100BD00059455AD8286A8007F6D50CE0FFF722FD60
:100BE000824605E0FFF71EFDA0EB0A0159454CD8EF
:100BF000286A8007F6D41FB1E86920F08050E861C8
:100C0000E06988B36968C1F38101022944D00228F0
:100C1000C6F8608004D0FFF705FD044638E034E0F4
:100C2000FFF700FD074604E0FFF7FCFCC01B0228AD
:100C30002BD828688001F7D4206AB0F5803F05D111
:100C40006868A16820F4003008436860D4E90801AE
:100C50000843696821F4741108436860C6F860901D
:100C6000FFF7E0FC044606E025E000BFFFF7DAFCF2
:100C7000001B022809D828688001F7D51BE000BFB7
:100C8000FFF7D0FC001B022802D90320BDE8F88F33
:100C900028688001F4D40EE00128F7D06868226A41
:100CA00000F48031914204D1616A00F470108842EE
:100CB00001D00120EAE70020E8E700000010024030
:100CC00000004242800442421400002000700040B4
:100CD0007047704710B5040003D094F83D0010B180
:100CE00007E0012010BD002084F83C00204600F001
:100CF0001EF8022084F83D00211D206800F0E4FB6E
:100D0000012084F8460084F83E0084F83F0084F80F
:100D1000400084F8410084F8420084F8430084F8DD
:100D2000440084F8450084F83D00002010BD704761
:100D300090F83D10012901D001207047022180F870
:100D40003D100168CA6842F00102CA6000680B49A0
:100D5000884208D0B0F1804F05D00949884202D0BE
:100D60000849884204D1816801F00701062903D0AF
:100D7000016841F00101016000207047002C014032
:100D8000000400400008004070472DE9F04104468F
:100D90000068C66805694FF00007A90713D5B107B9
:100DA00011D5F91E01610120207720688069800734
:100DB000204602D0FFF7E8FF04E000F07EF820466E
:100DC00000F07CF82777680716D5700714D52168DE
:100DD0006FF004000861022020772068806910F419
:100DE000407F204602D0FFF7CFFF04E000F065F817
:100DF000204600F063F82777280715D5300713D56C
:100E000021686FF008000861042020772068C0691D
:100E10008007204602D0FFF7B7FF04E000F04DF84E
:100E2000204600F04BF82777E80616D5F00614D5D3
:100E300021686FF010000861082020772068C069E1
:100E400010F4407F204602D0FFF79EFF04E000F040
:100E500034F8204600F032F82777E80708D0F0078A
:100E600006D021686FF001000861204600F028F8E4
:100E7000280608D5300606D521686FF08000086185
:100E80002046FFF725FF680608D5700606D52168BD
:100E90006FF040000861204600F01CF8A8060AD553
:100EA000B00608D521686FF0200008612046BDE833
:100EB000F041FFF70EBFBDE8F081704770470000BA
:100EC00000680349884201D1FFF7B2BB70470000B8
:100ED000000400407047704770470000F8B5016893
:100EE00004460868CA684B6910F00F0F4FF0000500
:100EF00059D003F0010602F49077374365D0C1075B
:100F000005D0D10503D5616C41F001016164410751
:100F100005D5D90703D0616C41F0020161648107F6
:100F200005D5D90703D0616C41F004016164010764
:100F300007D502F02001314303D0616C41F0080174
:100F40006164616C00293AD0800604D5900602D510
:100F5000204600F024FB20684069616CC0F38010DB
:100F6000090700D460B3204600F0F2FA2068406917
:100F7000400621D52068143050E8001F21F04001C0
:100F800040E80012002AF5D1E06BA8B16D49416339
:100F9000E06BFFF7EFF9002811D0E06B416B01B077
:100FA000BDE8F040084783060FD593060DD52046CF
:100FB000BDE8F84000F0F3BA2046FFF78DFFF8BD1A
:100FC0002046FFF789FF6564F8BD266B2023012EBC
:100FD0007CD1C6067AD5D60678D5086848680090D0
:100FE00048694FF00206400640D5E16B086840684A
:100FF0000004000CE8D0A28D8242E5D9E085886922
:1010000020282DD020680C3050E8001F21F480717A
:1010100040E80012002AF5D12068143050E8001F83
:1010200021F0010140E80012002AF5D120681430B7
:1010300050E8001F21F0400140E80012002AF5D1DD
:1010400084F84230256320680C3050E8001F21F0FE
:10105000100140E80012002AF5D1E06BFFF767F9B4
:101060006663A08DE18D401A81B22AE0A08DE18DEA
:10107000401A81B2E08D0028A6D00029A4D02268B1
:101080000C3252E8000F20F4907042E80007002F65
:10109000F5D12068143050E8002F22F0010240E81A
:1010A0000027002FF5D184F84230256320680C30EA
:1010B00050E8002F22F0100240E80023002BF5D169
:1010C00066632046FFF707FFF8BDFFE705062BD54F
:1010D000150629D594F841002128F5D1A068B0F56E
:1010E000805F01D12069B0B1206A411C2162216872
:1010F00000784860E08C401E0004000CE084E3D1DE
:101100002068C16821F08001C1602068C16841F099
:101110004001C160D8E7206A0088C0F30800486039
:10112000206A801C2062E5E74006CDD55006CBD56D
:10113000CA68204622F04002CA6084F8413000F0BC
:10114000C6F8C1E74115000870B5040004D094F852
:101150004100002510B106E0012070BD84F8405028
:10116000204600F023F8242084F841002068C1685C
:1011700021F40051C160204600F072FA2068016934
:1011800021F4904101612068416921F02A01416107
:101190002068C16841F40051C1606564202084F872
:1011A000410084F842006563002070BD30B585B011
:1011B0000024009401940294039400681849884222
:1011C0002CD11848816941F480418161816901F421
:1011D00080410491816941F0040181618069124D6F
:1011E00000F0040004904FF4007000900220019081
:1011F0000320039069462846FFF71AF92815CDE920
:101200000004694628460294FFF712F900221146AD
:101210002520FFF79FFA2520FFF78EFA05B030BD95
:1012200000380140001002400008014070472DE9DD
:10123000F843044690F84100984616460D4620288B
:1012400002D00220BDE8F88385B17EB10020606441
:10125000212084F84100FFF7E5F9A6848146E68461
:10126000A0682027B0F5805F02D003E00120E9E705
:10127000206910B12E4600250EE000260CE08021EA
:10128000204600F049FAA8B9C6B116F8010B21684A
:101290004860E08C401EE084E08C4B464FF000023A
:1012A000CDF800800028EAD14FF04001204600F040
:1012B00033FA40B184F841700320C3E735F8020BDC
:1012C000C0F30800E3E784F841700020BAE77047F4
:1012D000FEE700002DE9F047214D4FF48076002411
:1012E00031462846FFF794F96F154FF480684FF4A4
:1012F000006980B139462846FFF78AF958B141465E
:101300002846FFF785F9012805D049462846FFF70A
:101310007FF9012820D10A20FFF778F831462846C6
:10132000FFF776F988B139462846FFF771F970B1B1
:1013300041462846FFF76CF901280AD0494628465D
:10134000FFF766F9012806D006E0012404E0022434
:1013500002E0032400E004242046BDE8F0870000FA
:10136000000C0140F0B585B000242548009401949C
:1013700002940394816941F010018161816901F057
:1013800010010491816941F020018161816901F0BE
:1013900020010491816941F004018161816901F0BA
:1013A00004010491816941F0080181618069154F50
:1013B00000F0080040F20315049000222946384648
:1013C000FFF72BF90095022601250396CDE901547C
:1013D00069463846FFF72CF84FF440608DE851001D
:1013E000094E69463046FFF723F84FF440708DE808
:1013F000310069463046FFF71BF805B0F0BD00002C
:101400000010024000080140000C01400C4810B5DB
:101410000A4901604FF4E1314160002181600C22F2
:10142000C160C0E904128161C161FFF78DFE00282F
:1014300003D0BDE81040FEF778BF10BD0038014072
:1014400078000020FEE7FEE710B500F0D7FD012888
:1014500003D0BDE8104000F08DBD10BD30B58FB099
:1014600028216846FEF7FCFE14210AA8FEF7F8FEC4
:1014700001210804CDE90010002402940225049102
:10148000CDE907504FF4E01009906846FFF790FA55
:1014900008B172B6FEE70F20CDE90A054FF480606F
:1014A000CDE90C4002210AA80E94FFF785F9002827
:1014B00001D072B6FEE70FB030BD70470148FFF7AC
:1014C00064BC0000C0000020F0B50268194B1A4C43
:1014D0001A4D4FF08047984205D0B84203D0A04241
:1014E00001D0A84203D122F070064A6832439842E4
:1014F00005D0B84203D0A04201D0A84203D122F4C3
:101500004074CA6822434C6922F080022243026080
:101510008A68C2620A688262984201D109690163DD
:10152000012141610169C90703D0016921F001016D
:101530000161F0BD002C01400004004000080040A3
:1015400010B5406A0021C185C184FFF7C5FC10BDFC
:1015500001680C3151E8002F22F4907241E8002319
:10156000002BF5D10168143151E8002F22F001025F
:1015700041E80023002BF5D1016B012909D1016855
:101580000C3151E8002F22F0100241E80023002B1B
:10159000F5D1202180F8421000210163704708B581
:1015A00090F84210222901D0022008BD82684FF431
:1015B00080539A4201D1016921B1816A9A421BD0BC
:1015C0004AB10AE00268816A5268C2F308020A80DE
:1015D000816A891C08E0026972B10268526802F0EF
:1015E0007F020A70816A491C8162C18D491E09040B
:1015F000090CC18503D01BE002685268F1E701685D
:10160000CA6822F02002CA600168CA6822F48072A7
:10161000CA6001684A6922F001024A61202180F80B
:10162000421000214163026B012A03D0FFF7FEFD47
:10163000002008BD016301680C3151E8002F22F041
:10164000100241E80023002BF5D101680A68D20698
:1016500002D50A6849680091818DFFF73CFCE7E7F5
:1016600070B5044600680169E26821F440511143F5
:1016700001612169A0680843616908432168CA685B
:1016800041F20C639A430243CA6020684169A2692F
:1016900021F44071114341611E492068884202D102
:1016A000FFF750F901E0FFF73DF900EBC00101EB56
:1016B0000012606864218000B2FBF0F3B3FBF1F329
:1016C0006FF018067343B2FBF0F5B2FBF0F605EBD2
:1016D0008305322303EB0515B5FBF1F5B6FBF1F6F7
:1016E00005F0F00505EB0615B2FBF0F6B2FBF0F0E5
:1016F000B0FBF1F06FF01802504306EB800003EBF3
:101700000010B0FBF1F0216800F00F002844886061
:1017100070BD0000003801402DE9F8439846174697
:101720000D460446089E24E0701C22D0FEF77AFF86
:10173000A0EB0800B0421AD8CEB12068C1684907B2
:1017400017D5802D15D0402D13D00168C943090746
:101750000FD401680025406800902046FFF7F8FE8E
:101760000820606484F840500120BDE8F88303201D
:10177000FBE72068006835EA000004D00020B8428A
:10178000D2D00020F1E70120F9E700000148FFF77F
:10179000A5BB000078000020FEE70907090E00281D
:1017A00004DB00F1E02080F80014704700F00F0027
:1017B00000F1E02080F8141D704700001CB50749B7
:1017C0000120CDE900010023802205A1074800F097
:1017D000E7FBBDE81C4000F05DBB000000000020FE
:1017E00073746172745F7461736B0000DD1B0008B9
:1017F000FEF726FFFFF732FEFFF7B4FDFFF706FE08
:10180000FFF7DCFFFEE700002DE9F0411E4C0F461C
:101810000546E6682068001D00F04AFA38B92068DD
:1018200090F82C1001208840216981432161681CB7
:1018300015D1A7B11549226848689060236882686D
:10184000DA6022688368121D5A602268121D826065
:10185000206841610868401C0860BDE8F08120688C
:101860003544B5424560216805D2E06BBDE8F041E2
:10187000091D00F03EBAA06B091D00F03AFAA06AFB
:101880008542EAD2A562E8E718000020BC010020EA
:101890002DE9F041054600F051FA364CA068401C95
:1018A000A0602068344F10B1606940B32DE025601E
:1018B000A068012829D1002606EB860007EB8000EE
:1018C00000F009FA761C052EF6D32B48643000F0A0
:1018D00002FA2948783000F0FEF927488C3000F0F1
:1018E000FAF92548A03000F0F6F92348B43000F0AA
:1018F000F2F921486430A0631430E06305E0206809
:10190000E96AC06A884200D82560606A0121401CEB
:101910006062E86A226981401143216100EB800026
:1019200007EB80004068A8608168E9608268291D33
:1019300051608160E86A00EB800007EB800169611B
:1019400057F82010491C47F8201000F005FA60698C
:1019500000280CD02068E96AC06A884207D207498B
:101960004FF080500860BFF34F8FBFF36F8FBDE81B
:10197000F0810000180000200801002004ED00E0C4
:1019800010B50446006B00F0F1F92046BDE81040A8
:1019900000F0ECB90E484FF48841420706D0C01D54
:1019A0000B4920F00700411AC1F58841094A00237C
:1019B0000144C2E900030839143A21F0070111601B
:1019C0004B600B600B1AC0E90013936053607047C3
:1019D000D001002070000020144E154CA6F1A00785
:1019E0004FF08058DFF84C9012E000BF00F0A6F9ED
:1019F000F068C568281D00F05BF9A068401EA06073
:101A00006068401E606000F0A7F92846FFF7B8FF45
:101A100060680028EAD138680128F9D9C9F800803F
:101A2000BFF34F8FBFF36F8FF2E70000A8010020D4
:101A30001800002004ED00E02DE9F0479946DDE9AB
:101A4000096480466FF00303206B03EB8202089D5C
:101A5000104420F0070761B1002023180A5C83F8C6
:101A600034200A5C12B1401C1028F6D3002084F800
:101A70004300052D00D30425201DE56200F036F952
:101A800004F1180000F032F92461C5F10500646228
:101A9000A0614A464146384600F08EF82060002E8C
:101AA00000D03460BDE8F08730B5114900E0114640
:101AB0000A688242FBD34B685C18844203D14068B9
:101AC00018444860084643681C18944209D1084CE1
:101AD000143C2468A24209D052681A4442600A6841
:101AE00012680260814200D0086030BD0460F9E7EE
:101AF000700000200548816B096821B1816BC968BD
:101B00000968816270474FF0FF31FAE71800002042
:101B1000BF2080F31188BFF34F8FBFF36F8FFEE7B5
:101B200070B50446002600F0DDF9224D286808B99A
:101B3000FFF730FFCCB304F00700C0F11000C14341
:101B40008C4232D8211800292FDD686881422CD8B8
:101B5000184814300246146801E0204614466268B2
:101B60008A4202D22268002AF7D12A6894421CD005
:101B700006682268026060680836421A102A04D992
:101B8000601842606160FFF78FFF61686868401A03
:101B90006860AA68904200D2A86041F0004060608E
:101BA00000202060E868401CE86000F0C7FA30467A
:101BB00070BD00005C00002010B5031F4FF0807462
:101BC0001C601B1F21F001011960191F024B0B60E3
:101BD000143940380A6010BD111B00081CB500F014
:101BE000ADF808490220CDE900010023802206A1BA
:101BF000074800F0D5F9002000F0FEF8BDE81C40D1
:101C000000F0AAB8040000207461736B310000007A
:101C1000151C00084FF47A7400256610FFF75AFB74
:101C2000012802D002280BD01CE01420FFF778FF17
:101C3000054600F081F9074623461D220BA108E066
:101C4000284600F093F800F077F9074623461D2256
:101C50000EA11648FFF7EBFA234604223946134833
:101C6000FFF7E5FA304600F0AFF8D7E7E794B3E8BE
:101C7000AFB73230E7A9BAE997B42CE589A9E4B83F
:101C80008BE7A9BAE997B43D00000000E9878AE62E
:101C900094BE3230E7A9BAE997B42CE589A9E4B833
:101CA0008BE7A9BAE997B43D000000007800002056
:101CB000D0E9013201699A60D0E901235A604A688B
:101CC000824201D182684A60002202610868401E97
:101CD00008600868704700F108014FF0FF32C0E962
:101CE0000112C160016100210160704700210161A2
:101CF000704730B50B685A1C02D000F1080202E0B0
:101D0000026904E02246546825689D42FAD9536866
:101D10004B6099608A60516008610168491C0160EC
:101D200030BD42684A6093688B60936859609160E7
:101D300008610168491C016070470000BF2080F302
:101D40001188BFF34F8FBFF36F8F02480168491CA2
:101D5000016070475800002003490868401E086071
:101D600001D180F3118870475800002070B5002819
:101D70001BD0A0F108046068002816DA2168002949
:101D800013D120F00040606000F0ACF8074D6068AF
:101D90006968084468602046FFF786FE2869401C91
:101DA0002861BDE8704000F0C9B970BD5C0000203A
:101DB0004FF0E0200021016181610249416107216A
:101DC000016170473F19010010B5020009D000F011
:101DD00089F800211046FFF717FD00F0AFF9002841
:101DE00007D104494FF080500860BFF34F8FBFF315
:101DF0006F8F10BD04ED00E070B50546FFF79EFF44
:101E0000214C05B92568281DFFF752FF58B9E86A2B
:101E10001E4A00EB800152F8211021B901218140B6
:101E2000206988432061A86A18B105F11800FFF7FE
:101E30003FFF606A401C60622068854208D11348F9
:101E4000291DA030FFF76DFF6068401C606004E052
:101E5000A068401EA060FFF74DFEFFF77DFF2068E1
:101E6000854202D02846FFF78BFD606900280AD022
:101E70002068854207D106494FF080500860BFF3C3
:101E80004F8FBFF36F8F70BD180000200801002036
:101E900004ED00E07CB50F480025CDE900502B464D
:101EA00080220DA10E4800F07BF80A4C2C3C012842
:101EB0000ED1BF2080F31188BFF34F8FBFF36F8F18
:101EC0004FF0FF30A06201206061E56000F03AF859
:101ED000206B7CBD4400002049444C4500000000BC
:101EE000D91900080248416B491C41637047000042
:101EF000180000200E48416B11B10121C1617047EB
:101F00000021C16101690B4AB1FA81F1C1F11F01E0
:101F100001EB810102EB810101F108034A6852687B
:101F20004A609A4201D152684A60D16801607047A4
:101F30001800002008010020014840687047000098
:101F40005C000020094810B5016841F47F01016080
:101F5000016841F07F410160FFF72AFF044900203A
:101F60000860FEF723F9002010BD000020ED00E01E
:101F70005800002010B5BF2080F31188BFF34F8FA9
:101F8000BFF36F8F00F048F818B104494FF080504C
:101F90000860002080F3118810BD000004ED00E00F
:101FA0002DE9FF5F8346DDE90E87994616468A468E
:101FB0009000FFF7B5FD05001DD04C20FFF7B0FDE8
:101FC000040015D04C21FEF74BF925630021CDE923
:101FD0000241CDE900874B46324651465846FFF74D
:101FE0002BFD2046FFF754FC012004B0BDE8F09F14
:101FF0002846FFF7BBFE4FF0FF30F6E70548416982
:1020000019B1406B18B100207047012070470220C1
:1020100070470000180000202DE9F041454C0026D3
:10202000606B28B1A069401CA0613046BDE8F0811A
:10203000E5686D1CE56008D1A06BE16BA163E0630E
:10204000206A401C2062FFF755FDA16A3A488D4284
:102050000FD34FF0000EA16B096839B1A16BC968AD
:10206000C9684A68954212D2A26202E04FF0FF317D
:10207000A1622168C96A01EB810150F821000128A1
:1020800000D90126E0690028CFD00126CDE7D1E9AB
:1020900002724B69BA60D1E902277A605F680A1D53
:1020A000974201D1CF685F60C1F814E01F687F1EBE
:1020B0001F60D1F828C0BCF1000F15D0D1E9073757
:1020C0009F60D1E907377B60DCF8047001F11803E9
:1020D0009F4202D10B6ACCF80430C1F828E0DCF84A
:1020E00000305B1ECCF80030CB6A0127D4F810C05A
:1020F0009F4047EA0C07276103EB830300EB830350
:102100005B688B609F68CF609F687A609A60CA6ADC
:1021100002EB820200EB82034B6150F822305B1C21
:1021200040F82230C96A2268D26A914293D90126C6
:1021300091E7000018000020080100202DE9F0417F
:1021400000242746FFF7FAFD3F4D686B401E686389
:10215000686B002872D1A8683C4B00264FF001083C
:10216000F0BB6BE0D868C468D4E90721A06A91602D
:10217000D4E907125160426804F118018A4201D182
:10218000216A4160A6620168491E0160D4E902210A
:1021900060699160D4E9021251604268211D8A424F
:1021A00001D1E268426066610268521E0260E26A22
:1021B000D5F810C008FA02F040EA0C00286102EBE2
:1021C0008200224A8C3A02EB80004068A060D0F87E
:1021D00008C0C4F80CC0D0F808C0CCF8041000E067
:1021E00012E08160E06A00EB800002EB8001616137
:1021F00052F82010491C42F82010E06A2968C96A88
:10220000884201D3C5F81C8018680028AAD10CB1F7
:10221000FFF770FCAC693CB1FFF7FEFE08B1C5F8F2
:102220001C80641EF8D1AE61E86938B10849012705
:1022300038070860BFF34F8FBFF36F8FFFF78CFD38
:102240003846BDE8F081000018000020940100200D
:1022500004ED00E0010202030405060708090A0B69
:102260000C0D0E0F10100000000000000000010215
:10227000030406070809000000000102030400002F
:10228000A0220008000000207800000028010008BB
:102290001823000878000020B84B00004401000813
:1022A000000000000000000001000000100000001D
:1022B0000000000000127A00000000000000000092
:1022C000000000000000000000000000000000000E
:1022D00000000000000000000000000000000000FE
:1022E00000000000000000000400000000000000EA
:1022F0000000000000000000AAAAAAAA0000000036
:1023000000000000000000000000000000000000CD
:082310000000000000000000C5
:04000005080000ED02
:00000001FF
